:100000000C94AF150C94D9150C94D9150C94D915E2
:100010000C94D9150C94D9150C94D9150C94D915A8
:100020000C94D9150C9420C70C94D9150C94D9159F
:100030000C94D9150C942C970C94D9150C94D915B3
:100040000C94D9150C9408860C946DCB0C94D9158E
:100050000C94C36C0C94D9150C94D9150C94D91527
:100060000C94D9150C94D9150C94D9150C94D91558
:100070000C94D9150C94D9150C94D9150C94D91548
:100080000C9441980C94D9150C94D9154E414E49B5
:100090004E495459494E46CDCCCC3D0AD7233C1746
:1000A000B7D13877CC2B329595E6241FB14F0A0093
:1000B0000020410000C84200401C4620BCBE4CCA83
:1000C0001B0E5AAEC59D74434F4D4D554E4943418D
:1000D00054494F4E0044525952554E004552524FCA
:1000E000525300494E464F004543484F00656E71DC
:1000F00075657565696E672022004B494C4C454417
:100100002E200053544F505045442E200050726909
:100110006E7465722073746F7070656420647565A9
:1001200020746F206572726F72732E20466978207A
:10013000746865206572726F7220616E64207573D9
:1001400065204D39393920746F207265737461727E
:10015000742E202854656D70657261747572652007
:1001600069732072657365742E20536574206974F9
:100170002061667465722072657374617274696E51
:1001800067290A004E6F20436865636B73756D20A5
:1001900077697468206C696E65206E756D62657232
:1001A0002C204C617374204C696E653A20004E6FB0
:1001B00020436865636B73756D2077697468206C84
:1001C000696E65206E756D6265722C204C6173746A
:1001D000204C696E653A2000636865636B73756DCA
:1001E000206D69736D617463682C204C6173742099
:1001F0004C696E653A20004C696E65204E756D62E3
:100200006572206973206E6F74204C617374204C8A
:10021000696E65204E756D6265722B312C204C61C4
:100220007374204C696E653A20004D313130004DB9
:1002300033310053442072656164206572726F72BD
:100240000A00446F6E65207072696E74696E672073
:1002500066696C650A0020496E76616C6964206588
:100260007874727564657220000000000000000060
:10027000000000000000006B4300006B4300007AA8
:100280004342696C696E656172204C6576656C6984
:100290006E6720477269643A0A00486F6D6520589E
:1002A000592066697273740A00486F6D6520585949
:1002B00020666972737400202844525952554E29A1
:1002C00000473239204175746F20426564204C65C7
:1002D00076656C696E67003F20284C2C522C462CAA
:1002E0004229206F7574206F6620626F756E64738B
:1002F0002E0A003F2856296572626F7365206C656F
:1003000076656C20697320696D706C6175736962C4
:100310006C652028302D34292E0A00426164205A51
:100320002076616C75650A004E6F2062696C696E9B
:1003300065617220677269640A00486F74656E6453
:1003400020746F6F20636F6C640A0044656C657481
:10035000696F6E206661696C65642C2046696C6506
:100360003A200046696C652064656C657465643A82
:100370000050726F7465637465642050696E0A0082
:1003800020573A004520436F6F6C696E672E2E2E02
:1003900000452048656174696E672E2E2E00205737
:1003A0003A0042656420636F6F6C696E672E2E2E73
:1003B000004265642068656174696E672E2E2E00A8
:1003C000205A3A0020593A0020436F756E74205825
:1003D0003A0020453A00205A3A0020593A00583A4B
:1003E000003A004361703A00205A0020590058003A
:1003F00020204D61783A2000205A002059005800F2
:1004000020204D696E3A20004F6E20004F66660036
:10041000536F667420656E6473746F70733A200056
:1004200023646566696E652044454641554C545FBA
:100430004B64200023646566696E6520444546412F
:10044000554C545F4B69200023646566696E6520D6
:1004500044454641554C545F4B7020005049442060
:100460004175746F74756E652066696E6973686531
:1004700064212050757420746865206C6173742049
:100480004B702C204B6920616E64204B6420636F9D
:100490006E7374616E74732066726F6D2062656C2A
:1004A0006F7720696E746F20436F6E66696775722F
:1004B0006174696F6E2E680A00504944204175745A
:1004C0006F74756E65206661696C6564212074695E
:1004D0006D656F75740A00453120544845524D4191
:1004E0004C2052554E4157415900546865726D6118
:1004F0006C2052756E6177617900453120486561E5
:1005000074696E67206661696C6564004865617432
:10051000696E67206661696C6564005049442041DA
:1005200075746F74756E65206661696C65642120F1
:1005300054656D706572617475726520746F6F209B
:10054000686967680A00204B643A2000204B693ACA
:100550002000204B703A20000A20436C61737369BD
:100560006320504944200A002054753A2000204B53
:10057000753A2000206D61783A2000206D696E3A4E
:10058000200020643A200020626961733A20005004
:100590004944204175746F74756E6520737461727F
:1005A000740A00504944204175746F74756E65205B
:1005B0006661696C6564212054656D706572617453
:1005C00075726520746F6F20686967680A0050490A
:1005D00044204175746F74756E65206661696C6541
:1005E00064212042616420657874727564657220AC
:1005F0006E756D6265720A00426564204C657665B1
:100600006C696E6720004661696C656420746F20B8
:10061000656E61626C6520426564204C6576656C30
:10062000696E670A00496E736572742066696C6151
:100630006D656E7420616E642070726573732062E4
:100640007574746F6E0A00507265737320627574EE
:10065000746F6E20746F2068656174206E6F7A7A93
:100660006C650A00496E736572742066696C616D11
:10067000656E7420616E642070726573732062759C
:1006800074746F6E20286F72204D313038290A0043
:10069000536C6565702E2E2E00205A3A200020598A
:1006A0003A200042656420583A20004D6573682066
:1006B000706F696E742063616E6E6F742062652066
:1006C0007265736F6C7665640A00436C69636B20B6
:1006D000746F20726573756D652E2E2E004E6F201F
:1006E0006D6F76652E00456E642066696C65206CC2
:1006F0006973740A00426567696E2066696C6520DB
:100700006C6973740A004D31323500286E6F2066B3
:10071000696C65290043757272656E742066696C38
:10072000653A20005344207072696E74696E6720C8
:100730006279746520004E6F742053442070726992
:100740006E74696E670A002569730025696D20253E
:100750006973002569682025696D20256973002566
:100760006964202569682025696D20256973002545
:10077000697920256964202569682025696D20250F
:100780006973005072696E742074696D653A200057
:100790006F666600E800E300DC00D500C700444552
:1007A0004255473A004B494C4C45442E20004D31B0
:1007B00031332053006F6B00456E6465722D33201A
:1007C0004F66662E002C20002C2000544845524DC8
:1007D000414C5F50524F54454354494F4E00415590
:1007E000544F5245504F52545F53445F53544154F9
:1007F000555300454D455247454E43595F50415270
:1008000053455200434153455F4C494748545F426A
:1008100052494748544E45535300544F47474C455F
:100820005F4C494748545300534F46545741524533
:100830005F504F574552004255494C445F50455216
:1008400043454E54004C4556454C494E475F444144
:100850005441005A5F50524F4245004155544F4C4D
:100860004556454C005052494E545F4A4F42005045
:10087000524F4752455353004155544F5245504FE4
:1008800052545F54454D5000564F4C554D455452AF
:10089000494300454550524F4D0053455249414C44
:1008A0005F584F4E5F584F4646004649524D57419C
:1008B00052455F4E414D453A4D61726C696E203133
:1008C0002E312E392E31202847697468756229200F
:1008D000534F555243455F434F44455F55524C3A41
:1008E00068747470733A2F2F6769746875622E6329
:1008F0006F6D2F4D61726C696E4669726D776172B2
:10090000652F4D61726C696E2050524F544F434FAA
:100910004C5F56455253494F4E3A312E30204D418F
:100920004348494E455F545950453A456E64657297
:100930002D332045585452554445525F434F554E30
:10094000543A3120555549443A6365646532613201
:10095000662D343161322D343734382D39623132DD
:100960002D6335356336326633363766660A002FB7
:100970002F20004D31343520533C696E6465783E3C
:10098000206F7574206F662072616E676520283055
:100990002D31290A00205400205200416363656C08
:1009A00065726174696F6E3A2050005741524E492A
:1009B0004E4721204C6F77205A204A65726B206D7C
:1009C0006179206C65616420746F20756E77616E4B
:1009D000746564207061757365732E0A004F6666D6
:1009E00073657473206170706C6965640045727220
:1009F0003A20546F6F206661722100546F6F206639
:100A000061722066726F6D207265666572656E63D5
:100A10006520706F696E740A0020466C6F773A200B
:100A20000000010F150E12FFFFFFFF16170E13FF38
:100A3000FFFFFF03021A14FFFFFFFFFFFFFF0C047D
:100A4000FFFFFF01000EFFFFFF0C190DFF183A20FA
:100A50000020536572766F2000206F7574206F66DA
:100A60002072616E67650A00536572766F200050D0
:100A7000726F6265205A204F66667365743A200073
:100A8000496E76616C69642065787472756465720C
:100A90000A0020643A0020693A0020703A00432995
:100AA0000A0061626C656420286D696E2074656D52
:100AB000702000436F6C6420657874727564657390
:100AC0002061726520004E6F2063617365206C6940
:100AD0006768740A004D65736820706F696E7420D2
:100AE00063616E6E6F74206265207265736F6C76E1
:100AF00065640A004D34323120696E636F7272652D
:100B0000637420706172616D6574657220757361C4
:100B100067650A00454550524F4D204F4B0A003F34
:100B20005A206F7574206F662072616E6765202889
:100B30002D323020746F203230290A003A200050C4
:100B4000726F6265205A204F666673657400416358
:100B5000746976652045787472756465723A200010
:100B6000496E76616C69642065787472756465722B
:100B70000A00526573656E643A20006F6B00207442
:100B80006F6F206C6F6E6720657874727573696F14
:100B90006E2070726576656E7465640A0020636FFE
:100BA0006C6420657874727573696F6E20707265FD
:100BB00076656E7465640A00627573793A207061B7
:100BC0007573656420666F7220696E7075740A00B3
:100BD000627573793A2070617573656420666F720F
:100BE00020757365720A00627573793A2070726FAE
:100BF00063657373696E670A004B494C4C45442E1C
:100C000020004B494C4C2063617573656420627908
:100C100020746F6F206D75636820696E61637469FD
:100C200076652074696D65202D2063757272656E1E
:100C30007420636F6D6D616E643A2000506C656165
:100C40007365207265736574005052494E54455265
:100C50002048414C544544005072696E74657220BE
:100C600068616C7465642E206B696C6C2829206344
:100C7000616C6C6564210A00000000000000000047
:100C8000000000000000A0410000A04100008040E2
:100C9000000000005761726E696E673A20486F6D00
:100CA000696E672042756D702044697669736F7252
:100CB000203C20310A000202040000A0400000A0F5
:100CC000400000004000006B4300006B4300007ACE
:100CD00043FFFFFF4D3630303A20546F6F20636F73
:100CE0006C6400486F74656E6420746F6F20636F6E
:100CF0006C640A007C3C3E5E2B3D3F2F5B5D3B2CD1
:100D00002A225C004572726F722077726974696E74
:100D10006720746F20454550524F4D210A004545CC
:100D200050524F4D206461746173697A6520657219
:100D3000726F722E0A00290A002062797465733B73
:100D400020637263200053657474696E6773205367
:100D5000746F726564202800290A00206279746526
:100D6000733B2063726320002073746F726564208C
:100D700073657474696E67732072657472696576E1
:100D80006564202800202863616C63756C6174655C
:100D90006429210A0020213D2000454550524F4D35
:100DA00020435243206D69736D61746368202D2068
:100DB0002873746F7265642920002053697A653A3C
:100DC0002000496E6465783A2000204D61726C699C
:100DD0006E3D563536290A0028454550524F4D3D47
:100DE00000454550524F4D2076657273696F6E20F5
:100DF0006D69736D61746368200048617264636F2C
:100E00006465642044656661756C74205365747410
:100E1000696E6773204C6F616465640A00F40100B9
:100E200000F401000064000000881300000000FAD4
:100E3000430000FA430000A0400000C8410000A0A9
:100E4000420000A0420000C8430000BA42486F6D53
:100E5000696E67206661696C656400545249474752
:100E600045524544006F70656E003A20007A5F6D10
:100E7000696E00795F6D696E00785F6D696E005212
:100E800065706F7274696E6720656E6473746F70DD
:100E9000207374617475730A0020746F6F206C6F17
:100EA0006E6720657874727573696F6E20707265F5
:100EB00076656E7465640A0020636F6C64206578E3
:100EC00074727573696F6E2070726576656E746585
:100ED000640A0024F4D43050C38E20C2A24017828A
:100EE0008B7011127A910D816CD90AA861E108C743
:100EF000586607615143061E4B5D05C145A7041A9C
:100F0000411104093D9803713931034036DB026514
:100F1000339102D4305402802E1D02632CEE0175F1
:100F20002AC501B028A001102781018F2564012B5B
:100F3000244B01E0223401AC211F018D200D0180E2
:100F40001FFC00841EED00971DDF00B81CD200E6D8
:100F50001BC600201BBC00641AB200B219A8000A0C
:100F600019A0006A189900D117910040178B00B59D
:100F700016840031167E00B31579003A157300C748
:100F8000146F0058146A00EE13660088136300257E
:100F9000135E00C7125B006C12570015125400C19B
:100FA00011510070114F0021114B00D61049008DD6
:100FB0001047004610440002104200C00F4000805D
:100FC0000F3E00420F3C00060F3B00CB0E38009353
:100FD0000E37005C0E3500270E3400F30D3200C1D1
:100FE0000D3100900D3000600D2E00320D2D0005EA
:100FF0000D2C00D90C2B00AE0C2900850C29005CAF
:101000000C2700350C27000E0C2600E80B2400C42A
:101010000B2400A00B23007D0B23005A0B21003969
:101020000B2100180B2000F80A1F00D90A1E00BB74
:101030000A1E009D0A1D00800A1D00630A1C00474D
:101040000A1B002C0A1B00110A1A00F7091A00DDFE
:10105000091900C4091900AB091900920917007B8E
:10106000091800630917004C0916003609160020FC
:101070000916000A091500F5081500E0081400CC4F
:10108000081400B8081400A4081400900813007D88
:101090000812006B081300580812004608120034AA
:1010A000081100230811001208110001081100F0B6
:1010B000071000E0071000D0071000C0071000B0B4
:1010C000070F00A107100091070E0083070F00749F
:1010D000070F0065070E0057070E0049070E003B7B
:1010E000070D002E070E0020070D0013070D000648
:1010F000070D00F9060C00ED060D00E0060C00D40B
:10110000060C00C8060C00BC060C00B0060C00A4BF
:10111000060B0099060C008D060B0082060B00776B
:10112000060B006C060B0061060A0057060B004C0C
:10113000060A0042060A0038060A002E060A0024A3
:10114000060A001A060A001006090007060A00FD32
:10115000050900F4050900EB050900E2050900D9BD
:10116000050900D0050900C7050900BE050900B53D
:10117000050800AD050800A50509009C05080094B8
:101180000508008C050800840508007C050800742B
:101190000508006C050700650508005D0507005699
:1011A0000508004E05070047050700400508003800
:1011B000050700310507002A050700230507001C65
:1011C000050600160507000F0507000805060002C2
:1011D000050700FB040600F5040700EE040600E81E
:1011E000040600E2040700DB040600D5040600CF75
:1011F000040600C9040600C3040600BD040600B7C7
:10120000040600B1040500AC040600A6040600A014
:101210000405009B04060095040500900406008A5E
:1012200004050085040500800406007A04050075A5
:10123000040500700405006B0405006604050061E8
:101240000405005C04050057040500520405004D28
:1012500004050048040500430405003E0404003A68
:1012600004050035040500300404002C04050027A3
:10127000040400230405001E0404001A04040016DC
:10128000040500110404000D040400090405000411
:1012900004040000040400FC030400F8030400F448
:1012A000030400F0030400EC030400E8030400E47A
:1012B000030400E0030400DC030400D8030400D4AA
:1012C000030400D0030400CC030400C8030300C5DA
:1012D00003030024F404D9201BC40C5C0E9804C43E
:1012E000095F0265077101F405F900FB04B30048CA
:1012F000048700C10369005803550003034500BE7D
:10130000023A008402310053022A00290225000417
:10131000022000E4011C00C8011900AF0117009869
:1013200001140084011300710110006101100051CB
:10133000010E0043010D0036010B002B010B0020B4
:10134000010B00150109000C01090003010800FB55
:10135000000800F3000800EB000700E4000600DED0
:10136000000600D8000600D2000600CC000500C729
:10137000000500C2000500BD000400B9000400B56E
:10138000000400B1000400AD000400A9000400A5A1
:10139000000300A20003009F0004009B00030098CC
:1013A0000003009500020093000300900003008DED
:1013B0000002008B00030088000200860002008407
:1013C000000300810002007F0002007D0002007B1C
:1013D000000200790002007700010076000200742C
:1013E00000020072000100710002006F0002006D37
:1013F0000001006C0002006A000100690002006741
:101400000001006600010065000100640002006246
:1014100000010061000100600001005F0002005D4A
:101420000001005C0001005B0001005A000100594E
:10143000000100580001005700010056000100554E
:10144000000100540001005300000053000100524D
:1014500000010051000100500001004F0001004E4A
:101460000000004E0001004D0001004C0001004B47
:101470000000004B0001004A000100490001004843
:10148000000000480001004700010046000000463F
:101490000001004500000045000100440001004338
:1014A0000000004300010042000000420001004132
:1014B00000000041000100400001003F0000003F2B
:1014C0000001003E0000003E0001003D0000003D24
:1014D0000001003C0000003C0000003C0001003B1B
:1014E0000000003B0001003A0000003A0001003912
:1014F000000000390001003800000038000000380A
:1015000000010037000000370001003600000036FF
:1015100000000036000100350000003500000035F5
:1015200000010034000000340000003400010033EA
:1015300000000033000000330001003200000032E0
:1015400000000032000100310000003100000031D5
:101550000001003000000030000000300001002FCA
:101560000000002F0000002F0000002F0001002EBF
:101570000000002E0000002E0001002D0000002DB4
:101580000000002D0000002D0001002C0000002CA8
:101590000000002C0000002C0001002B0000002B9C
:1015A0000000002B0000002B0001002A0000002A90
:1015B0000000002A0000002A000100290000002984
:1015C0000000002900000029000000290001002877
:1015D000000000280000002800000028000000286B
:1015E000000100270000002700000027000000275E
:1015F0000000002700010026000000260000002651
:101600000000002600000026000100250000002543
:101610000000002500000025000000250000002536
:101620000001002400000024000000240000002429
:10163000000000240001002300000023000000231C
:10164000000000230000002300000023000000230E
:101650000001002200000022000000220000002201
:1016600000000022000000220001002100000021F3
:1016700000000021000000210000002100000021E6
:1016800000000021000100200000002000000020D8
:1016900000000020000000200000002000000020CA
:1016A000000000200001001F0000001F0000001FBC
:1016B0000000001F0000001F0000001F0000001FAE
:1016C0000001001E0000001E0000001E0000001EA1
:1016D000000000043700001E290000511B000058C4
:1016E00010000010090000CC040000780200004146
:1016F0000100006265640A002C2073797374656DC3
:101700002073746F70706564212048656174657220
:101710005F49443A20004265642068656174696EDF
:1017200067206661696C65640048656174696E670D
:10173000206661696C6564004531204865617469A3
:101740006E67206661696C65640048656174696EE6
:1017500067206661696C65640070012C0190012747
:1017600001B0012201C0011D01F001180110021396
:101770000130020E016002090190020401C002FF63
:10178000000003FA004003F5008003F000D003EBF3
:10179000002004E6007004E100E004DC004005D70E
:1017A00000C005D2004006CD00D006C8008007C3A7
:1017B000003008BE00F008B900C009B400B00AAF9C
:1017C00000B00BAA00D00CA500000EA000500F9B8B
:1017D00000C01096005012910000148C00C01587B4
:1017E00000B0178200B0197D00D01B7800001E7376
:1017F0000040206E0090226900F024640040275FC2
:101800000090295A00E02B5500102E500020304B3C
:101810000010324600E033410090353C001037376D
:101820000070383200A0392D00B03A2800A03B23C8
:1018300000603C1E00103D1900903D1400103E0F4A
:1018400000703E0A00C03E0500003F0000403FFB24
:10185000FF803FF6FFC03FF1FF453120544845521D
:101860004D414C2052554E4157415900424544206C
:10187000544845524D414C2052554E415741590014
:10188000546865726D616C2052756E617761790084
:101890004531204572723A204D415854454D500013
:1018A0004572723A204D415854454D5020424544AE
:1018B000004D415854454D502074726967676572F8
:1018C0006564004531204572723A204D494E5445B9
:1018D0004D50004572723A204D494E54454D5020AE
:1018E000424544004D494E54454D5020747269673D
:1018F0006765726564004D383420582059205A209D
:101900004500202F002042403A0020403A00257533
:101910003A2530327500253032753A25303275005F
:1019200025756420253032753A2530327500202027
:1019300020202020005A005900202020200058009C
:101940000920000000000000000000000000003F2F
:10195000FFF0000000000000000000000000380060
:101960007000000000000000000000000030FC30AB
:1019700000000000000000000000000020FC10003B
:1019800000000000000000000000002078100000AF
:1019900000000000000000000000203010000000E7
:1019A0000000000000000000002C00D03FC000003C
:1019B00000000000002082002E31D07FE0000000F7
:1019C000000000001041002F7BD07FE000000000ED
:1019D0000000001041002F7BD07FE00000000000DD
:1019E00000002082002E31D03FC000000000000027
:1019F000004104002C00D03FC000000000000000A7
:101A00008208002030107FE000000000000000820B
:101A100008002078107FE000000000000000410472
:101A20000020FC107FE00000000000000020820089
:101A300030FC301F80000000000000000000003873
:101A400000700F0000000000000000FFFFC03FFF1B
:101A5000F0060000000000000000FFFFC0000000D2
:101A60000000000000000000000000003FFFF00048
:101A700000000000000000000000003800700000BE
:101A8000000000000000000000003186300000006F
:101A9000000000000000000000238710000000008C
:101AA00000000000000000002787900000000000F8
:101AB000000000000000002F87D0000000000000A0
:101AC0000000000000002F03D03FC0000000000015
:101AD00000002082002030107FE0000000000000A5
:101AE000001041002078107FE0000000000000009E
:101AF0001041002078107FE000000000000000206E
:101B000082002030103FC0000000000000004104AF
:101B1000002F03D03FC0000000000000008208003A
:101B20002F87D07FE000000000000000820800271F
:101B300087907FE000000000000000410400238740
:101B4000107FE0000000000000002082003186309D
:101B50001F80000000000000000000003800700F2F
:101B60000000000000000000FFFFC03FFFF0060083
:101B700000000000000000FFFFC0000000456E6490
:101B800065722D332052656164792E005072696E42
:101B900074696E672E2E2E005072696E742070610B
:101BA0007573656400436D643A2053746F77004326
:101BB0006D643A204465706C6F7900436D643A201F
:101BC00053656C662D5465737400436D643A2053FD
:101BD000572D4D6F646500436D643A2052657365FF
:101BE00074004D61696E004D313235004D32340064
:101BF0005072696E742061626F72746564004D3258
:101C000031004E6F20534420636172640043686169
:101C10006E67652053442063617264004D32310069
:101C20005072696E742066726F6D20534400537455
:101C30006F70207072696E7400526573756D6520E7
:101C40007072696E7400496E69742E20534420636B
:101C5000617264005061757365207072696E740002
:101C6000436F6E74726F6C005072657061726500C4
:101C700054756E6500496E666F2073637265656E9C
:101C80000050726F6265205A204F6666736574005B
:101C90004368616E67652066696C616D656E74008E
:101CA00050726F6265205A204F66667365740046F5
:101CB0006C6F7700466C6F770046616E20737065BD
:101CC00065640046616E20737065656400426564FA
:101CD00000426564004E6F7A7A6C65004E6F7A7AC6
:101CE0006C65005370656564005370656564004DF4
:101CF00061696E005072656865617420504C4120C6
:101D0000456E64005072656865617420504C4120D6
:101D1000426564005072656865617420504C4100F2
:101D200050726570617265005072656865617420FB
:101D300041425320456E64005072656865617420AD
:101D400041425320426564005072656865617420A9
:101D5000414253005072657061726500436D643A90
:101D6000205265736574004D323830205030205356
:101D700031363000436D643A2053656C662D5465EE
:101D80007374004D323830205030205331323000DF
:101D900050726568656174204142530050726568F5
:101DA00065617420504C4100436F6F6C646F776EB7
:101DB000004368616E67652066696C616D656E746D
:101DC0000044697361626C6520737465707065723C
:101DD00073004D3834004175746F20686F6D650075
:101DE000473238004D6F76652061786973004D6128
:101DF000696E004D6F76652058004D6F76652059ED
:101E0000004D6F7665205A0045787472756465726E
:101E1000004D6F766520302E316D6D004D6F76650B
:101E200020316D6D004D6F76652031306D6D004D48
:101E30006F766520617869730045787472756465A2
:101E400072004D6F7665205A004D6F7665205900FF
:101E50004D6F766520580045787472756465720020
:101E60004D6F7665205A004D6F76652059004D6F95
:101E7000766520580050726570617265004C6F6124
:101E8000642073657474696E677300526573746F50
:101E90007265206661696C736166650053746F7268
:101EA000652073657474696E677300424C546F7576
:101EB00063680046696C616D656E74004D6F74698E
:101EC0006F6E0054656D7065726174757265004D5A
:101ED00061696E004D33303320553120452569202E
:101EE00053256900504944204175746F74756E65BF
:101EF00000504944204175746F74756E65005049F7
:101F0000442D44005049442D44005049442D49007B
:101F10005049442D49005049442D50005049442D0A
:101F20005000200820466163740020082046616349
:101F300074002008204D6178002008204D61780051
:101F40002008204D696E002008204D696E004F6604
:101F500066004F6E20004175746F74656D700046A9
:101F6000616E2073706565640046616E20737065F4
:101F700065640042656400426564004E6F7A7A6C65
:101F800065004E6F7A7A6C6500436F6E74726F6C89
:101F90000050726F6265205A204F66667365740048
:101FA000436F6E74726F6C004C6F6164206D6D00D6
:101FB0004C6F6164206D6D00556E6C6F6164206DB7
:101FC0006D00556E6C6F6164206D6D00436F6E74B3
:101FD000726F6C0043616E6E6F7420656E74657213
:101FE000207375626469723A2000022E2E0001523D
:101FF000656672657368004D61696E004D373032F9
:1020000020542564004D3630302042302054256461
:10201000004D373032203B2564004D37303120549D
:10202000256400556E6C6F61642066696C616D6536
:102030006E7400556E6C6F61642066696C616D65CD
:102040006E74004D373032004D373031004C6F61C7
:10205000642066696C616D656E74004D36303020A9
:102060004230004368616E67652066696C616D652A
:102070006E740050726570617265005052494E5422
:102080002050415553454400554E4C4F4144204645
:10209000494C414D454E54004C4F41442046494C1B
:1020A000414D454E54005075726765206D6F7265E5
:1020B00000436F6E74696E756500524553554D450A
:1020C000204F5054494F4E533A0020204E6F7A7A99
:1020D0006C653A20006368616E6765006F66207406
:1020E00068652066696C616D656E7400576169741E
:1020F00020666F722073746172740020204E6F7AB4
:102100007A6C653A2000200066696C616D656E74BA
:1021100020756E6C6F6164005761697420666F7220
:102120000020204E6F7A7A6C653A20002000506CB7
:102130006561736520776169742E2E2E0048656194
:1021400074696E67206E6F7A7A6C650020204E6F1E
:102150007A7A6C653A2000200068656174206E6FA1
:102160007A7A6C652E005072657373206275747490
:102170006F6E20746F0020204E6F7A7A6C653A2063
:1021800000746F20636F6E74696E75652E2E2E005D
:10219000616E6420707265737320627574746F6E03
:1021A00000496E736572742066696C616D656E744A
:1021B0000020204E6F7A7A6C653A20002000666914
:1021C0006C616D656E74206C6F6164005761697439
:1021D00020666F720020204E6F7A7A6C653A20007C
:1021E000200066696C616D656E742070757267653C
:1021F000005761697420666F7200746F2072657396
:10220000756D65005761697420666F722070726920
:102210006E740000002100240027002A0000002224
:1022200000250028002B00000020002300260029A4
:102230000002020202020202020404040404040472
:10224000040303030303030303010101010101016B
:1022500001010204081020408001020408102040FF
:1022600080010204081020408080402010080402F1
:1022700001000000010200090A0000000004030838
:102280000700000000000000000000000000000047
:1022900000022020506C616E6E6572427566666544
:1022A0007242797465733A20002046726565204D4C
:1022B000656D6F72793A2000436F6D70696C65646B
:1022C0003A2053657020323620323032310A0020F5
:1022D0007C20417574686F723A202874686973694C
:1022E000736B65697468622C20456E6465722D336A
:1022F000290A00323032302D30362D323000204C59
:1023000061737420557064617465643A2000312EE5
:10231000312E392E310A004D61726C696E002053E6
:102320006F6674776172652052657365740A002068
:102330005761746368646F672052657365740A003F
:102340002042726F776E206F7574205265736574CA
:102350000A002045787465726E616C205265736561
:10236000740A00506F77657255700A007374617259
:10237000740A006175746F25692E67006572726F4B
:10238000722077726974696E6720746F2066696C59
:10239000650A00456E6473746F7073202563202591
:1023A0006320256320256300205A3A0020593A0013
:1023B00020583A00656E6473746F70732068697496
:1023C0003A2000446F6E6520736176696E672066FF
:1023D000696C652E0A004D3239004368616E67658D
:1023E0002066696C616D656E7400556E6C6F61641A
:1023F0002066696C616D656E74004C6F6164206667
:10240000696C616D656E74005072656865617420F9
:10241000414253005072656865617420504C410020
:102420004368616E67652066696C616D656E7400F6
:102430004D3234004D323320257300556E6B6E6F74
:10244000776E20636F6D6D616E643A202200496E75
:10245000736572742066696C616D656E7420616E5F
:102460006420707265737320627574746F6E2028B7
:102470006F72204D313038290A0050726F62696ED8
:1024800067206661696C65640A0050726F62696EEC
:1024900067206661696C656400205A3A2000205903
:1024A0003A200042656420583A200053442063617A
:1024B0007264206F6B0A006F70656E526F6F7420CC
:1024C0006661696C65640A00766F6C756D652E696E
:1024D0006E6974206661696C65640A005344206902
:1024E0006E6974206661696C0A00486F6D6520250D
:1024F0007325732573206669727374002066697290
:1025000073740A005A0059005800486F6D65200026
:1025100057726974696E6720746F2066696C653ADA
:1025200020006F70656E206661696C65642C2046C2
:10253000696C653A20006F70656E206661696C6534
:10254000642C2046696C653A200046696C652073EE
:10255000656C65637465640A002053697A653A2086
:102560000046696C65206F70656E65643A200020D6
:1025700066696C653A2000646F696E670066726513
:102580007368004E6F772000454E442053554252E9
:102590004F5554494E450A002220706F7300222087
:1025A000706172656E743A2200535542524F555411
:1025B000494E452043414C4C207461726765743A22
:1025C00022004B494C4C45442E2000747279696EB0
:1025D0006720746F2063616C6C207375622D676374
:1025E0006F64652066696C65732077697468207410
:1025F0006F6F206D616E79206C6576656C732E202F
:102600004D4158206C6576656C2069733A004572BF
:10261000726F723A006F70656E206661696C6564F6
:102620002C2046696C653A200043616E6E6F742001
:102630006F70656E207375626469722000656368EF
:102640006F3A0000060900FE0701920321207FFF78
:1026500007FF07FF00000006000001070706020051
:1026600080808080800080030202060105A0A00512
:1026700007070600005050F850F8505005070706AD
:1026800000002078A07028F020050707060000C091
:10269000C810204098180507070600006090A04069
:1026A000A89068020303060104C0408003070706E0
:1026B0000100204080808040200307070601008041
:1026C00040202020408005050506000120A870A8B4
:1026D000200505050600012020F82020020303063E
:1026E00002FFC04080050101060003F80202020655
:1026F0000200C0C005050506000108102040800545
:102700000707060000708888888888700307070616
:10271000010040C040404040E0050707060000704F
:102720008808708080F8050707060000F810201060
:102730000808F005070706000010305090F8101048
:10274000050707060000F880F008088870050707ED
:10275000060000708080F08888700507070600007A
:10276000F808102020202005070706000070888840
:102770007088887005070706000070888878080848
:1027800070020505060200C0C000C0C002060606B1
:1027900002FFC0C000C040800407070600001020F0
:1027A0004080402010050303060002F800F80407EB
:1027B0000706010080402010204080050707060022
:1027C00000708808102000200507070600007088A8
:1027D0000868A8A870050707060000708888F888B0
:1027E0008888050707060000F08888F08888F005CB
:1027F000070706000070888080808870050707063C
:102800000000F08888888888F0050707060000F82F
:102810008080F08080F8050707060000F88080F0CF
:10282000808080050707060000708880B88888705F
:10283000050707060000888888F888888801070748
:1028400006020080808080808080050707060000E7
:10285000381010101090600507070600008890A03F
:10286000C0A09088050707060000808080808080D7
:10287000F805070706000088D8A888888888050713
:10288000070600008888C8A89888880507070600FA
:102890000070888888888870050707060000F0881F
:1028A00088F080808005070706000070888888A867
:1028B0009068050707060000F08888F0A09088055A
:1028C0000707060000788080700808F005070706F3
:1028D0000000F8202020202020050707060000889F
:1028E0008888888888700507070600008888888897
:1028F0008850200507070600008888888888A85027
:1029000005070706000088885020508888050707BB
:102910000600008888885020202005070706000050
:10292000F80810204080F8030707060100E08080C7
:10293000808080E005050506000180402010080326
:102940000707060100E02020202020E00503030601
:102950000004205088050101060000F8020202066A
:102960000205804005050506000070087888780596
:1029700007070600008080B0C88888F005050506B6
:10298000000070808088700507070600000808684E
:10299000988888780505050600007088F88070051D
:1029A00007070600003048E04040404005060606A4
:1029B00000FF70888878087005070706000080808F
:1029C000B0C88888880107070602008000808080E0
:1029D00080800308080601FF200020202020A0405E
:1029E000040707060000808090A0C0A0900307079E
:1029F000060100C04040404040E0050505060000DB
:102A0000D0A8A8A8A8050505060000B0C888888831
:102A10000505050600007088888870050606060012
:102A2000FFF08888F080800506060600FF78888819
:102A3000780808050505060000B0C88080800505F7
:102A40000506000070807008F004070706000040CB
:102A500040E0404040300505050600008888889821
:102A600068050505060000888888502005050506CC
:102A700000008888A8A85005050506000088502099
:102A800050880506060600FF8888887808700505C6
:102A900005060000F8102040F80307070601002093
:102AA000404080404020010707060200808080806F
:102AB000808080030707060100804040204040805E
:102AC00005020206000268900000000600000006F1
:102AD0000900FE000000000001090008FE000005DA
:102AE000080806000040F0C8888898781005080893
:102AF000060000C0F88888888888F8050505060063
:102B0000012030F830200508080600002070F82069
:102B1000202020E00509090600FF2070A8A8B88839
:102B20008870200509090600FFE080C0B0A82830A1
:102B300028280509090600FFF8A88888888888A839
:102B4000F8050A0A0600FE205050505088A8A888B0
:102B50007003030306000340A04009EA34E811248F
:102B60001FBECFEFD0E4DEBFCDBF12E0A0E0B1E0EA
:102B7000ECEFF5EF01E00BBF02C007900D92A83516
:102B8000B107D9F723E1A8E5B2E001C01D92A9364B
:102B9000B207E1F715E1CEEAD5E104C02197FE01C5
:102BA0000E9462FACD3AD107C9F70E9409EB0C9452
:102BB000F1FA0C940000CF92DF92EF92FF926091B5
:102BC000120470911304072E000C880B990B0E94BD
:102BD000D0F36B017C012DEB37E346E855EB0E9407
:102BE000A4F987FD0BC02DEB37E346E855E3C70199
:102BF000B6010E94C9F318160CF043C0A701960154
:102C000060E070E080E89FE30E94A4F86093A9036D
:102C10007093AA038093AB039093AC036091140468
:102C200070911504072E000C880B990B0E94D0F3AD
:102C30006B017C012DEB37E346E855EB0E94A4F9CC
:102C400087FD0AC02DEB37E346E855E3C701B6011F
:102C50000E94C9F31816CCF4A701960160E070E059
:102C600080E89FE30E94A4F86093AD037093AE03E5
:102C70008093AF039093B003FF90EF90DF90CF90DD
:102C8000089560E070E0CB01C1CF60E070E0CB015F
:102C9000EBCF8091D2029091D302A091D402B09157
:102CA000D50280935F0190936001A0936101B0937E
:102CB00062018091D0029091D10290932301809380
:102CC0002201089580915F0190916001A0916101BE
:102CD000B09162018093D2029093D302A093D40268
:102CE000B093D50280912201909123019093D1025B
:102CF0008093D00284E690E0909323018093220198
:102D000008950F931F93CF93DF9394E0899FE00181
:102D100011248E010D56134FFE01EE55F54FDE01C5
:102D2000A252BC4F2D913D914D915C91608171817A
:102D3000828193810E9421F8F801608371838283EC
:102D40009383FE01E759FD4F85919591A591B4912B
:102D5000FE01E55AF64F80839183A283B383FE017F
:102D6000EB58FD4F85919591A591B491CC5DDE4FC7
:102D700088839983AA83BB83DF91CF911F910F91A1
:102D800008959091B20AE92FF0E0E255F54F808363
:102D90009F5F943040F49093B20A8091350C8F5F1E
:102DA0008093350C08951092B20AF7CF089590E001
:102DB00080E0089580E1E3EAFCE0A8E6BCE0019051
:102DC0000D928A95E1F7089580E1E8E6FCE0A3EA38
:102DD000BCE001900D928A95E1F7089580918303FC
:102DE000909184032FEF3FEF981751F0E92FF0E017
:102DF000ED5FFC4F208130E09F5F9F7790938403CD
:102E0000C9010895CF92DF92EF920F931F93CF9352
:102E1000DF93CDB7DEB760970FB6F894DEBF0FBE75
:102E2000CDBFE090910CE3EAFCE080859185A2851E
:102E3000B38544815581668177810081118122812A
:102E4000338109831A832B833C834D835E836F8395
:102E5000788789879A87AB87BC871D861E861F86E1
:102E6000188AAE01475F5F4FBE016B5F7F4FCE0197
:102E700001960E9458A9CE010D966C010FE511E054
:102E80002FEA3CE0AE01475F5F4FBE016B5F7F4FB3
:102E90000C970E94AC9A60960FB6F894DEBF0FBEF6
:102EA000CDBFDF91CF911F910F91EF90DF90CF9029
:102EB0000895CF93DF9380E00E94D4A8C1EBD3E0C4
:102EC000688379838A839B8381E00E94D4A86C8382
:102ED0007D838E839F8382E00E94D4A86887798750
:102EE0008A879B87DF91CF9108952F923F924F92CF
:102EF0005F926F927F928F929F92AF92BF92CF928A
:102F0000DF92EF92FF920F931F93CF93DF9300D046
:102F100000D000D0CDB7DEB79A8389830E94ECC879
:102F2000A981BA811696CD90DD90ED90FC9019970D
:102F3000C114D104E104F10409F07FC21C962C9164
:102F40001C97222309F44DC01A96EC911A97215030
:102F50001C962C931C9721E02E0F1A962C931A97EF
:102F60001D963C911D97231302C01A961C92F0E007
:102F70003196EE0FFF1FEE0FFF1F29813A81E20FFE
:102F8000F31FC284D384E484F584D9011296CD92D0
:102F9000DD92ED92FC9215976C0D7D1D811D911DAA
:102FA000F901668377838087918784819581892B56
:102FB000C1F0FFB7FD83F894A981BA8112962D90D4
:102FC0003C9013972101712C612C14960D911C914A
:102FD000809149018B31F1F08F3F09F497C0AD81A9
:102FE000AFBF26960FB6F894DEBF0FBECDBFDF9100
:102FF000CF911F910F91FF90EF90DF90CF90BF90F6
:10300000AF909F908F907F906F905F904F903F9088
:103010002F900895E1E9F2E2B491BE83B7FDDFCFCE
:1030200061E08BE10E94AEC73E81332321F08E81A7
:10303000823009F072C14801B12CA12C60E072E12C
:103040008AE790E0A50198010E94DFF729833A837F
:103050004B835C8369017A0191E0C91AD108E108C8
:10306000F108AFEFCA16D104E104F10409F00CF441
:103070002BC160E472E48FE090E0A50198010E940A
:10308000DFF769017A01B1E0CB1AD108E108F10854
:10309000EE81E23009F0CCC082E0FFEFCF16D10420
:1030A000E104F10409F00CF425C260E970ED83E05D
:1030B00090E0A50198010E94DFF769017A0181E0A3
:1030C000C81AD108E108F10883E09FEFC916D104BE
:1030D000E104F10409F00CF40DC268E478EE81E03B
:1030E00090E0A50198010E94DFF769017A01A1E053
:1030F000CA1AD108E108F108BFEFCB16D104E104E8
:10310000F10411F00CF0B8C084E0F4C18BE18093BD
:103110004901E1E9F2E224912E832F3F09F45FCFC8
:10312000213041F170F0223009F442C0233009F41B
:1031300061C0FE81F7FD53CF61E08BE10E94AEC715
:1031400076CF14BC15BC84B5826084BD85B5816022
:1031500085BDECE4F2E2E491F0E0EE0FFF1FE35EE8
:10316000FD4D85919491ECE6F2E2E491E0935C02EE
:103170001E8256CF109280001092810080918100B3
:1031800088608093810080918100816080938100BC
:10319000ECE4F2E2E491F0E0EE0FFF1FE35EFD4DA0
:1031A00085919491ECE6F2E2E491E0935B0238CFF2
:1031B0001092B0001092B1008091B00082608093B4
:1031C000B0008091B10081608093B100ECE4F2E244
:1031D000E491F0E0EE0FFF1FE35EFD4D85919491C9
:1031E0009093920A8093910AECE6F2E2E491E093E4
:1031F000930A16CF10929000109291008091910046
:10320000886080939100809191008160809391000B
:10321000ECE4F2E2E491F0E0EE0FFF1FE35EFD4D1F
:1032200085919491ECE6F2E2E491E0935A02F8CEB3
:10323000AFEFCA16D104E104F10409F00CF46BC03D
:1032400068E478EE81E090E0A50198010E94DFF744
:1032500069017A01B1E0CB1AD108E108F108EE81E9
:10326000EE2309F413C12FEFC216D104E104F104D7
:1032700011F00CF014C148CF64E274EF80E090E0EC
:10328000A50194010E94DFF769017A01F1E0CF1AEC
:10329000D108E108F10885E02FEFC216D104E1045E
:1032A000F10409F008F426C162E17AE780E090E0D9
:1032B000A50194010E94DFF769017A01E1E0CE1ACD
:1032C000D108E108F108FDC081E0AE81A11112C171
:1032D00095B5987F892B85BD2FEF3FEFA901452834
:1032E0004628472809F051C08E81813009F483C0F7
:1032F0000CF07BC0811173CEC7BC20936502309364
:103300006602409367025093680280916E0082606B
:1033100080936E0064CE82E0D8CFB12CA12C60E007
:1033200072E18AE790E0A50198010E94DFF7690148
:103330007A01B1E0CB1AD108E108F10891E0C1149B
:10334000D104E1E0EE06F10484F068E478EE81E077
:1033500090E0A50198010E94DFF769017A01F1E090
:10336000CF1AD108E108F10893E02E812130D1F481
:1033700080918100887F892B809381002FEF3FEF20
:10338000A901452846284728B1F19801220F331F8B
:10339000D1010E9411F828EE33E040E050E00E9495
:1033A000BDF7A2CF3E81333009F096CF80919100D6
:1033B000887F892B809391002FEF3FEFA90145284B
:1033C0004628472811F7D0929900C0929800209380
:1033D0005D0230935E0240935F02509360028091E1
:1033E0007100826080937100FACD9E819230A9F0C5
:1033F000933049F3F4CDD0928900C0928800209395
:1034000061023093620240936302509364028091A0
:103410006F00826080936F00E2CDC092B300209372
:10342000940A3093950A4093960A5093970A809194
:103430007000826080937000D2CD6C197D098E0976
:103440009F0997FDCECD1498E981FA8116821782E3
:1034500010861186C6CD84E03FEFC316D104E10487
:10346000F10409F008F434CFC980DA80EB80FC80E5
:103470009AE0F594E794D794C7949A95D1F721E010
:10348000C21AD108E108F10885E022CF83E0FFEFFE
:10349000CF16D104E104F10409F00CF419CF62E174
:1034A0007AE780E090E0A50194010E94DFF76901CE
:1034B0007A0181E0C81AD108E108F1089E819923B8
:1034C00051F286E09FEFC916D104E104F10491F0B6
:1034D00088F0C980DA80EB80FC808AE0F594E7947C
:1034E000D794C7948A95D1F781E0C81AD108E1082A
:1034F000F10887E09091B100987F892B8093B1000B
:10350000EBCE8091580290915902009731F04AE039
:1035100050E070E060E00C94DCF060E070E0CB0123
:1035200008950E94811A97FD0CC00E94811A6F3F76
:1035300071058105910509F034F40E94811A862FE6
:10354000089580E008958FEF08958091580290913A
:103550005902892B41F00E94911A91E0811101C01A
:1035600090E0892F089591E0FCCF809158029091CE
:103570005902009731F04AE050E070E060E00C94AE
:103580000AF260E070E0CB0108958F929F92AF92B3
:10359000BF92CF92DF92EF92FF920F93CF93DF9380
:1035A0001F92CDB7DEB76C017B01490180911604F3
:1035B0005B01A40EB51E8823A1F0F60180819181E4
:1035C000480F591F518340830F90DF91CF910F9186
:1035D000FF90EF90DF90CF90BF90AF909F908F9033
:1035E0000895F601808191810E9497F789839091D7
:1035F0001704992311F0002311F0F7018083BE0115
:103600006F5F7F4FC4010E941FC4F60180819181CA
:10361000019691838083FFEFEF1AFF0AEA14FB04FF
:1036200001F7D2CFFC0120E03EE2DB014D91BD016C
:10363000403249F0283011F430833196DB01119784
:103640004C91408331962F5F2B3079F7108208958B
:1036500061E0FC0180810C94F2C68EBD0DB407FEC2
:10366000FDCF08958FEF8EBD0DB407FEFDCF8EB553
:1036700008958F929F92AF92BF92EF92FF920F9315
:103680001F93CF937C01C62F49015A01FC019281FF
:10369000892F806A86958CBD90FD03C081E09630AD
:1036A00009F480E08DBD60E0F70180810E94F2C6E0
:1036B0008CE291E00E9419CA8C2F80640E942D1B1D
:1036C00008E110E0D501C401002E04C0B695A7950D
:1036D000979587950A94D2F70E942D1B08501109DF
:1036E000083FFFEF1F0771F785E9CC2321F087E83A
:1036F000C83009F08FEF0E942D1BCC3011F40E94CE
:10370000321BC0E00E94321BF701838387FF04C095
:10371000CF3F11F0CF5FF6CFCF911F910F91FF9068
:10372000EF90BF90AF909F908F9008950F931F934D
:10373000CF93DF93EC0189018C81833039F089E0EC
:10374000440F551F661F771F8A95D1F79A01AB0169
:1037500068E1CE010E94391B882319F086E0898335
:103760003AC08EEF8EBDF801C8019E5F0DB407FE12
:10377000FDCF20812EBD0DB407FEFDCF21812EBDD2
:103780003296E817F90791F70DB407FEFDCF8FEFDA
:103790000E942D1B8FEF0E942D1B0E94321B8B83DA
:1037A0008F71853099F488E592E00E9419CA182F2C
:1037B00087E11123A1F220E030E0A9016DE0CE0104
:1037C0000E94391B882361F086E1C9CF83E1898398
:1037D000CE010E94281BCE010E94281B10E007C0CA
:1037E0000E94321B8111F0CFCE010E94281B812F35
:1037F000DF91CF911F910F910895CF938091BB0ED0
:10380000C1E08823A1F04091B30E5091B40E6091B5
:10381000B50E7091B60E23EB3CE08091BC0E9091FA
:10382000BD0E0E94961BC82F811104C0C0E08C2FD2
:10383000CF9108954091B70E5091B80E6091B90E96
:103840007091BA0E411551056105710591F023EB98
:103850003CE08091BC0E9091BD0E0E94961B882387
:1038600029F31092B70E1092B80E1092B90E109262
:10387000BA0E1092BB0EDBCFEF92FF920F931F9305
:10388000CF93DF93EC0179018C81833039F089E0AB
:10389000440F551F661F771F8A95D1F79A01AB0118
:1038A00061E1CE010E94391B882339F084E08983CD
:1038B000CE010E94281B80E03BC00E94ECC88B0117
:1038C0000E94321B8B838F3F81F40E94ECC8601BE7
:1038D000710B6D327140A0F381E18983CE010E94AA
:1038E000281B8FEF0E942D1BE6CF8E3F11F08FE03B
:1038F000F4CF8FEF8EBDF701D701A150BE4F0DB4AD
:1039000007FEFDCF9EB591938EBDAE17BF07B9F7E9
:103910000DB407FEFDCF8EB58C930E94321B0E9422
:10392000321BCE010E94281B8FEF0E942D1B81E0CD
:10393000DF91CF911F910F91FF90EF900895CF925B
:10394000DF92EF92FF92CF936B017C01C42F8091A5
:10395000B30E9091B40EA091B50EB091B60E8C1529
:103960009D05AE05BF0501F10E94FD1B811108C038
:10397000C0E08C2FCF91FF90EF90DF90CF90089513
:1039800023EB3CE0B701A6018091BC0E9091BD0EE7
:103990000E943C1C882361F3C092B30ED092B40EF7
:1039A000E092B50EF092B60ECC2321F081E0809328
:1039B000BB0EDFCFC1E0DDCF4F925F926F927F925F
:1039C0008F929F92AF92BF92CF92DF92EF92FF922F
:1039D0000F931F93CF93DF93EC01423051056105A4
:1039E000710590F480E0DF91CF911F910F91FF90CE
:1039F000EF90DF90CF90BF90AF909F908F907F908F
:103A00006F905F904F90089589859A85AB85BC85AE
:103A10000196A11DB11D84179507A607B70710F3DE
:103A20008F898031C9F5852E962EA72EBB248B89D0
:103A30009C89AD89BE89880E991EAA1EBB1E2801CD
:103A400039016A017B0141E0C501B4010E949F1C5C
:103A5000882341F29F89903181F5DD24EE24FF24F3
:103A6000F601EE0FFF1FED54F34F118300839A8987
:103A7000923008F4B8CF4D815E816F817885840ED5
:103A8000951EA61EB71E8092B70E9092B80EA092F9
:103A9000B90EB092BA0EA7CF803209F0A3CF8B89AE
:103AA0009C89AD89BE894A015B01E7E0B694A79481
:103AB00097948794EA95D1F7BECFE894C7F8DD24B0
:103AC000EE24FF24F601EE0FFF1FEE0FFF1FED5453
:103AD000F34F4082518262827382C9CFCF92DF92CC
:103AE000EF92FF920F931F93CF93DF93FC01818599
:103AF0009285A385B4850196A11DB11D84179507F4
:103B0000A607B70750F480E0DF91CF911F910F9186
:103B1000FF90EF90DF90CF90089587898031A9F5CD
:103B2000BB27A72F962F852FC388D488E588F688D2
:103B30008C0D9D1DAE1DBF1DE9016A017B018F012A
:103B40004091B30E5091B40E6091B50E7091B60EC7
:103B500084179507A607B70749F5F80187898031CB
:103B600069F5B701A601552766277727440F551F2A
:103B70004D54534FFA0180819181B0E0A0E08883D9
:103B80009983AA83BB8381E0BFCF803209F0BBCF8A
:103B9000C388D488E588F688DB01CA01C7E0B695FA
:103BA000A79597958795CA95D1F7C2CF40E0BC01FC
:103BB000CD010E949F1C8111D0CFA5CFB701A601D6
:103BC0004F77552766277727440F551F440F551FFA
:103BD0004D54534FFA0180819181A281B381BF700E
:103BE000CECF4F925F926F927F92AF92BF92CF9261
:103BF000DF92EF92FF920F931F93CF93DF9300D04A
:103C000000D0CDB7DEB78C0149835A836B837C83A8
:103C10005901C12CD12C7601412C82E0582E612C07
:103C2000712C49815A816B817C819E012F5F3F4FAE
:103C3000C8010E946E1D882319F1F8018585A30132
:103C4000920104C0220F331F441F551F8A95D2F7DB
:103C5000DA01C901C80ED91EEA1EFB1E49815A812C
:103C60006B817C8187898031F1F481E0483F5F4F2F
:103C700061057105B0F2F501C082D182E282F38262
:103C80000F900F900F900F90DF91CF911F910F9198
:103C9000FF90EF90DF90CF90BF90AF907F906F90AC
:103CA0005F904F90089581E0483F5F4F6F4F7F4096
:103CB00008F4B7CFE0CF0F931F93CF93DF93FC01AE
:103CC0002381222331F080E0DF91CF911F910F916A
:103CD00008958B01EC01FB018789803139F582E081
:103CE0008B831D8A1E8A1F8A188E808D918DB0E06D
:103CF000A0E025E0880F991FAA1FBB1F2A95D1F7C6
:103D0000898B9A8BAB8BBC8B1A8F098F81E089834F
:103D1000188619861A861B861C821D821E821F82A7
:103D2000188A1C861D861E861F86CECF803259F6C5
:103D300083E08B83428D538D648D758D4D8B5E8BAF
:103D40006F8B788F9E012F5E3F4FC8010E94F11D3F
:103D50008111DACFB8CF8F929F92AF92BF92CF925C
:103D6000DF92EF92FF920F931F93CF93DF93EC01BB
:103D70008B8181110EC080E0DF91CF911F910F9157
:103D8000FF90EF90DF90CF90BF90AF909F908F907B
:103D9000089509891A892B893C8904171507260774
:103DA000370748F34A015B01823031F488869986EF
:103DB000AA86BB8681E0E0CF81149104A104B104FE
:103DC00049F4188619861A861B861C821D821E825B
:103DD0001F82F0CF088519852A853B85E98DFA8DEC
:103DE000858590E00996B901A80141505109610902
:103DF0007109082E04C076956795579547950A94E2
:103E0000D2F775016401E1E0CE1AD108E108F108AA
:103E100004C0F694E794D794C7948A95D2F7C41651
:103E2000D506E606F70620F0012B022B032B11F531
:103E30008D899E89AF89B88D8C839D83AE83BF8326
:103E40008E010C5F1F4FC114D104E104F10409F489
:103E5000ADCF4C815D816E817F819801898D9A8D76
:103E60000E946E1D91E0C91AD108E108F108811184
:103E7000EACF81CFC41AD50AE60AF70AE1CF40E0BB
:103E800050E0BA010C94AB1E3F924F925F926F923A
:103E90007F928F929F92AF92BF92CF92DF92EF92DA
:103EA000FF920F931F93CF93DF93CDB7DEB72C977D
:103EB0000FB6F894DEBF0FBECDBF5C01DC01599692
:103EC0008D909C90F40181859285A385B4859C0199
:103ED000AD012F5F3F4F4F4F5F4F29873A874B8789
:103EE0005C87D50114964D905D906D907C901797EE
:103EF000411451046104710409F459C0BFEF4B1A15
:103F00005B0A6B0A7B0A312C730162011D821E82DF
:103F10001F821886F40181859285A385B4852D8141
:103F20003E814F815885281739074A075B0708F0FB
:103F300056C089859A85AB85BC858C159D05AE05D7
:103F4000BF0550F482E0C82ED12CE12CF12C92E078
:103F5000492E512C612C712C9E012F5F3F4FB701D0
:103F6000A601C4010E946E1D8823C9F189819A812E
:103F7000AB81BC81892B8A2B8B2B01F12601370168
:103F80009FEF491A590A690A790A2D813E814F81AA
:103F900058852F5F3F4F4F4F5F4F2D833E834F8399
:103FA00058873FEFC31AD30AE30AF30AB3CF40801E
:103FB00051806280738033243394A6CFC414D50417
:103FC000E604F70411F70FEF1FEF2FEF3FE0B70103
:103FD000A601C4010E94DC1C782E81111AC0712C2C
:103FE000872D2C960FB6F894DEBF0FBECDBFDF91A4
:103FF000CF911F910F91FF90EF90DF90CF90BF90E6
:10400000AF909F908F907F906F905F904F903F9078
:104010000895F501448155816681778141155105E7
:104020006105710539F097018601C4010E94DC1C0D
:104030008823A9F2D5011496CD92DD92ED92FC92DF
:104040001797332051F0D701C6010196A11DB11D6C
:10405000F40180839183A283B383F50185899689D6
:10406000A789B08D892B8A2B8B2B09F0B9CFC58AF4
:10407000D68AE78AF08E818180688183B1CFCF9321
:10408000DF93EC01462F41706C857D858E859F8581
:104090000E949F1C882351F0888920E2829FC001E2
:1040A00011248D54934FDF91CF91089590E080E0DB
:1040B000FACFCF93DF93EC018B81882349F189817B
:1040C00087FF22C061E0CE010E943F20FC01892BC6
:1040D000F9F08081853EE1F08B81823040F489895E
:1040E0009A89AB89BC89848F958FA68FB78F8D896C
:1040F0009E89938F828F8D899E89AF89B88DB58B6C
:10410000A48B89818F778983DF91CF910C94FD1BDC
:1041100081E0888380E0DF91CF9108952F923F92D4
:104120004F925F926F927F928F929F92AF92BF92C7
:10413000CF92DF92EF92FF920F931F93CF93DF9373
:1041400000D000D0CDB7DEB78C014B011A01DC01E5
:1041500013968C911397813009F0CAC011968C91F7
:1041600081FFC6C082FDB0C06101D80118964D9193
:104170005D916D917C911B97C114D10409F41AC112
:1041800059968D919C915A97FC0174802FEF270DC1
:104190002A013B0139E076946794579447943A9505
:1041A000D1F7722E74207A01F1E0FF22711020C045
:1041B000E114F104E9F414964D915D916D917C91B7
:1041C0001797411551056105710509F097C055967E
:1041D0008D919D910D90BC91A02D0097A105B105E9
:1041E00009F0A5C0C8010E94441F882309F480C0BB
:1041F00080E092E08E199F0956018C159D0508F408
:104200005C01D80159964D915C915A9714968D9105
:104210009D910D90BC91A02D0297A109B109FA01C1
:10422000258504C0880F991FAA1FBB1F2A95D2F7A6
:104230004685578560897189840F951FA61FB71F12
:104240009C01AD01270D311D411D511D29013A0170
:10425000A11432E0B30609F078C08091B30E9091BA
:10426000B40EA091B50EB091B60E481659066A0666
:104270007B0669F41092BB0E8FEF9FEFDC018093F9
:10428000B30E9093B40EA093B50EB093B60E9401F6
:10429000B301A2018091BC0E9091BD0E0E94961BAD
:1042A000882331F1F80180859185A285B3858A0D37
:1042B0009B1DA11DB11D80879187A287B3878A0CA2
:1042C0009B1CCA18DB0851CFF801418952896389C8
:1042D000748980859185A285B385481759076A0737
:1042E0007B0709F441CFC8010E94AB1E81113CCF6E
:1042F00081E0D8018C938FEF9FEF72C09E012F5FFA
:104300003F4F0E946E1D882399F389819A81AB816A
:10431000BC81F801218D328DF9012789203169F4A2
:10432000883FFFEF9F07A105B10508F05BCFF801BB
:1043300084839583A683B7835BCF883F2FEF920753
:10434000A2072FE0B20798F34DCFE114F10451F525
:10435000D80118964D915D916D917C911B97519666
:104360008D919D910D90BC91A02D481759076A071A
:104370007B07C0F00E94FD1B882309F4B9CF81E0C0
:104380008093BB0E4092B30E5092B40E6092B50E65
:104390007092B60EA501B401C7018D54934F0E94CF
:1043A00080FA80CF41E0C301B2010E949F1C8111BD
:1043B000F1CF9ECFF80181899289A389B4898417AE
:1043C0009507A607B70738F48181418B528B638B21
:1043D000748B80688183F801818183FD18C0C101DD
:1043E0000F900F900F900F90DF91CF911F910F9131
:1043F000FF90EF90DF90CF90BF90AF909F908F9005
:104400007F906F905F904F903F902F900895C801DC
:104410000E9459208111E3CF6BCFCF93DF931F927E
:10442000CDB7DEB7698341E050E0BE016F5F7F4FDB
:1044300004960E948E200F90DF91CF910895CF9324
:10444000DF93EC010E9459201B82DF91CF910895E8
:10445000FC01238121110C941F220895CF93DF9337
:10446000EB01FC012381211104C080E0DF91CF9199
:1044700008952250223028F48FE28883198281E047
:10448000F5CF60E00E943F20009779F3DC0160E007
:1044900080E09EE22D91203299F0883031F49E0127
:1044A000260F311DF90190836F5F9E01260F311D8C
:1044B000AD0141505109FA014081F90140836F5F1C
:1044C0008F5F8B3039F7FE01E60FF11D1082D7CFD9
:1044D0000F931F93CF93DF938B01EA01DB016D9163
:1044E0007C9104960E942E22D801ED91FC911197A7
:1044F00088819081992349F08D38A0F43196ED930D
:10450000FC9388818F5F8883EFCF8D3858F48FE2DA
:104510008083F801808191810196918380838881D5
:104520008F5F8883DF91CF911F910F9108952F9214
:104530003F924F925F926F927F928F929F92AF9233
:10454000BF92CF92DF92EF92FF920F931F93CF9380
:10455000DF9300D000D0CDB7DEB79C838B834B01B7
:104560007A01DC0113968C91811119C08FEF9FEFB6
:104570000F900F900F900F90DF91CF911F910F919F
:10458000FF90EF90DF90CF90BF90AF909F908F9073
:104590007F906F905F904F903F902F900895EB81A8
:1045A000FC81818180FFE2CF0189128923893489CE
:1045B0004085518562857385C701B0E0A0E0280180
:1045C0003901441A550A660A770A481659066A06D6
:1045D0007B0618F47801E41AF50A67018B819C8147
:1045E00004969A838983612C32E0732EC114D1041E
:1045F00009F4B7C0AB81BC8118964D915D916D9166
:104600007C911B975A01B1E0BB22EB81FC81818D2B
:10461000928D1A012B0129E05694479437942794E0
:104620002A95D1F72381223091F5DC015A966D91BC
:104630007D918D919C915D97620D731D841D951DDB
:1046400083010A191B09C016D10608F48601011559
:10465000B2E01B0771F42091B30E3091B40E40917B
:10466000B50E5091B60E621773078407950709F0CF
:1046700059C040E00E949F1C882309F477CFB50100
:104680006D54734FA801C4010E9480FA57C0FC0109
:10469000148111501221A114B10481F411110EC022
:1046A000452B462B472B79F5EB81FC818589968933
:1046B000A789B08D84839583A683B783AB81BC81A2
:1046C0005996ED91FC915A9714966D917D918D912B
:1046D0009C9117976250710981099109258504C041
:1046E000660F771F881F991F2A95D2F72685378571
:1046F00040895189620F731F841F951F610F711DBF
:10470000811D911D9DCFAB81BC8114964D915D9112
:104710006D917C91179729813A810E946E1D8111BC
:10472000CDCF24CF9401AB01BC018091BC0E909100
:10473000BD0E0E943C1C882309F418CF800E911EE8
:10474000EB81FC8180859185A285B385800F911FC7
:10475000A11DB11D80879187A287B387C01AD10A96
:1047600045CFC70105CFDF92EF92FF920F931F93C2
:10477000CF93DF938C01EB017A018DE0D82E40E2DC
:1047800050E0BE01C8010E9497228032910571F06D
:1047900021E0892B09F420E0822F8195DF91CF91D0
:1047A0001F910F91FF90EF90DF90089528812223B1
:1047B000F1F1253E11F02E3231F4E114F104F9F259
:1047C000F7011082DCCFE114F10439F13B853F732E
:1047D0003F3019F54A8D5B8D452BF9F42F713FEF72
:1047E000320F3230D0F42150330BD29EC001D39E11
:1047F000900D1124D701A80FB91FFE0120E0AD01D3
:10480000253078F431813D932F5F32962D30C1F7FA
:10481000288126FF02C0FA0115862B8523FDAFCF24
:10482000BDCF2B3010F43481EECF3681ECCF80E059
:10483000B5CF4F925F926F927F92AF92BF92CF921D
:10484000DF92EF92FF920F931F93CF93DF931F920C
:10485000CDB7DEB78C017B015A01C22EDB01599620
:104860008D919C91F801928F818FCB010E943F1F07
:10487000712CF70180859185A285B3854189528984
:104880006389748984179507A607B70708F052C093
:1048900055E0B695A795979587955A95D1F7F82F36
:1048A000FF70DF2ED70113968C91823010F480E0D8
:1048B000DBC041E050E0BE016F5F7F4FC7010E9447
:1048C00097220197A1F7F70180859185A285B3858D
:1048D0004F96A11DB11D80879187A287B387F0E213
:1048E000DF9EB00111246D54734F61157105F9F20B
:1048F000DB018C91882341F0853E09F04CC0772084
:1049000029F077247394B5CF71100EC08091B30E47
:104910009091B40EA091B50EB091B60EF8018487B7
:104920009587A687B787D08ADB018C918111E9CF63
:10493000772473948C2D8274823409F0B8CF772059
:1049400009F4A2C0F801D08861E0C8010E943F20AC
:10495000009709F4ACCF20E2DC011D922A95E9F71B
:104960002BE0F501DC0101900D922A95E1F721E29F
:1049700038E2FC01318B208B40E058E057874687B6
:10498000338B228B318F208F578B468B0E94FD1BE0
:10499000811109C08CCF4BE050E0C5010E9473FA31
:1049A000892B09F066CFF0E2DF9ED00111249D0132
:1049B0002D54334FF9018385817121F08C2D827143
:1049C00009F0FCC0F801818D928D4091B30E509199
:1049D000B40E6091B50E7091B60E44875587668708
:1049E0007787D08AFD01ED54F34F44885588712CA8
:1049F000612C320155244424D80155964D925D9284
:104A00006D927C925897428D538D70E060E04429FE
:104A100055296629772955964D935D936D937C931F
:104A20005897D9011B962C91287109F0B9C0848D33
:104A3000958DA68DB78DF801818B928BA38BB48B4E
:104A400081E083838C2D8F70F8018183148215821D
:104A500016821782108611861286138681E0C4FEA4
:104A600003C0C8010E9440C20F90DF91CF911F91F7
:104A70000F91FF90EF90DF90CF90BF90AF907F901D
:104A80006F905F904F900895D70113968C91139774
:104A9000823009F40CCF51968D919D910D90BC916F
:104AA000A02D803E9F4FAF41B10508F000CFC70158
:104AB0000E94441F882309F4FACE0E94FD1B88231C
:104AC00009F4F5CED7015996ED91FC915A971496B9
:104AD0004D905D906D907C901797B2E04B1A510805
:104AE00061087108858504C0440C551C661C771C40
:104AF0008A95D2F786859785A089B189480E591E77
:104B00006A1E7B1E81E08093BB0E4092B30E5092D2
:104B1000B40E6092B50E7092B60EE3EBFCE080E04E
:104B200092E0DF019C011D9221503040E1F7DD242D
:104B3000D394D7015996ED91FC918481D81698F4BD
:104B400023EB3CE0B301A2014D0D511D611D711D10
:104B50008091BC0E9091BD0E0E94961B882309F493
:104B6000A6CED394E6CF258580E092E0A0E0B0E029
:104B700004C0880F991FAA1FBB1F2A95D2F7F701FF
:104B80004189528963897489840F951FA61FB71FB5
:104B9000818B928BA38BB48B83EB9CE0D12CDBCEEF
:104BA000203161F498012F5E3F4F0E94F11D882350
:104BB00029F084E0D80113968C9344CFD801139642
:104BC0001C9275CE2F923F924F925F926F927F927E
:104BD0008F929F92AF92BF92CF92DF92EF92FF920D
:104BE0000F931F93CF93DF93CDB7DEB7C354D10993
:104BF0000FB6F894DEBF0FBECDBF4C015B016A015A
:104C0000222E19821C821C8E1F8E6115710521F5C2
:104C100010E0CE014C960E942822CE0101960E94FF
:104C20002822812FCD5BDF4F0FB6F894DEBF0FBE79
:104C3000CDBFDF91CF911F910F91FF90EF90DF904B
:104C4000CF90BF90AF909F908F907F906F905F902C
:104C50004F903F902F900895FC0183818111D8CF10
:104C6000FA0180818F32A9F18B01CE0101967C017E
:104C70003C0180E2382E2E019CE1490E511C239606
:104C8000EFAE23972496FFAE249722963FAE22974D
:104C900021963FAE21973FAE3EAE3DAE3CAE3BAE21
:104CA0003AAE39AE38AE3FAA960190E047E0D9015E
:104CB0008D91882309F448C08F3209F445C0282F0C
:104CC0008E3209F54A3009F4A3CF98E04AE09D01FD
:104CD000EECFFB01838182508B01823060F0618DC9
:104CE000728DCE014C960E945B1E8E01045E1F4F9A
:104CF000882309F48DCFC6016C010196F60120814D
:104D00002F32D1F3B2CFE4EFFCE03491332321F022
:104D100031968313FACF7CCF491708F479CF8132CB
:104D200008F476CF8F3709F473CF3FE9380F3A3163
:104D300010F420EE280FE7E3F0E0EC0FFD1FE90F81
:104D4000F11D20839F5FC3CF8FA9803209F460CF0C
:104D50006901F90180812F5F3F4F8F32C9F38823AA
:104D600001F121E0AE01495C5F4FB801C7010E942B
:104D70001924882309F44CCF0A151B0519F0C80122
:104D80000E941F22942D852D6E147F0431F02396EE
:104D90009FAD239724968FAD24978701E92EF82E97
:104DA00074CF222DAE01495C5F4FB801C4010E944F
:104DB0001924182F2ECF4F925F926F927F928F926D
:104DC0009F92AF92BF92CF92DF92EF92FF92CF93DA
:104DD0004B015C0169017A0120E030E048E252E4D5
:104DE0000E9421F82B013C012FE632E143E85AEB07
:104DF0000E94A4F987FD50C022E430E04BE653E462
:104E0000C301B2010E94C9F318160CF445C020E09A
:104E100030E040EA51E4C701B6010E9421F82B01BD
:104E20003C012FE632E143E85AEB0E94A4F987FDEA
:104E300033C022E430E04BE653E4C301B2010E94E8
:104E4000C9F318164CF127EE3BEF4FE151E4C501D1
:104E5000B4010E94A4F987FD1FC022E430E041E4C0
:104E600053E4C501B4010E94C9F31816ACF027EE53
:104E70003BEF4FE151E4C701B6010E94A4F987FD61
:104E80000BC0C1E022E430E047E553E4C701B601BE
:104E90000E94C9F318160CF4C0E08C2FCF91FF903C
:104EA000EF90DF90CF90BF90AF909F908F907F90CA
:104EB0006F905F904F90089522E232E0FC013183C1
:104EC000208304960C9428225E9A8091920C8E7F07
:104ED0008093920C5E9A8091920C8D7F8093920CBD
:104EE000159A8091920C8B7F8093920C5E9A089514
:104EF0004F925F926F927F928F929F92AF92BF92EA
:104F0000CF92DF92EF92FF920F931F93CF93DF9395
:104F1000EC0160910E0470910F04072E000C880BB9
:104F2000990B0E94D0F39B01AC01688179818A8141
:104F30009B810E9420F86B017C01609110047091AC
:104F40001104072E000C880B990B0E94D0F39B01D3
:104F5000AC016C817D818E819F810E9420F84B0184
:104F60005C01A70196016091060170910701809193
:104F70000801909109010E94C9F3882309F451C0E6
:104F8000C0920601D0920701E0920801F092090157
:104F90002091A9033091AA034091AB035091AC0337
:104FA000C701B6010E942FF42B013C010E944CF96D
:104FB0006B017C0120E030E0A9010E94C9F387FD6C
:104FC00071C020E030E040E85FE3C701B6010E9415
:104FD000A4F9181634F4C12CD12CC0E8EC2ECFE380
:104FE000FC2EA7019601C301B2010E9420F8609334
:104FF000A5037093A6038093A7039093A803C7010A
:10500000B6010E9416F96093A403062E000C770BDC
:105010006F5F7F4F6230710514F062E070E0609363
:10502000A30310910101D091A403A5019401609103
:1050300002017091030180910401909105010E9489
:10504000C9F3811133C01D1382C0209185033091B3
:10505000860340918703509188036091A503709166
:10506000A6038091A7039091A8030E942FF420919A
:10507000890330918A0340918B0350918C030E94E5
:1050800021F8DF91CF911F910F91FF90EF90DF906A
:10509000CF90BF90AF909F908F907F906F905F90D8
:1050A0004F900895C12CD12C76019BCF80920201A4
:1050B00090920301A0920401B09205012091AD03EA
:1050C0003091AE034091AF035091B003C501B401DC
:1050D0000E942FF44B015C010E944CF96B017C0192
:1050E00020E030E0A9010E94C9F387FDF9C020E06B
:1050F00030E040E85FE3C701B6010E94A4F918164A
:1051000034F4C12CD12CB0E8EB2EBFE3FB2EA70169
:105110009601C501B4010E9420F860939F0370932B
:10512000A0038093A1039093A203C701B6010E943C
:1051300016F960939E03062E000C770B6F5F7F4F6E
:105140006230710514F062E070E060939D03C091DD
:105150009E031D1305C0809100018C1709F475C0D2
:10516000D0930101C09300018D2FDD0F990B0C2E00
:10517000000CDD0BAC01440F551F840F951FFC0183
:10518000EC0FFD1FEE0FFF1FEE0FFF1FE651FC4F50
:1051900020813181428153812093990330939A0376
:1051A00040939B0350939C03E0919D030E2FEE0FC1
:1051B000110BDC01A00FB11FAA0FBB1FAA0FBB1F51
:1051C000A651BC4F6D917D918D919C910E9420F8CC
:1051D000609395037093960380939703909398033D
:1051E0008091A303282F880F330BC901880F991FC3
:1051F000820F931FC80FD91FCC0FDD1FCC0FDD1FEF
:10520000C651DC4F288139814A815B81209391030B
:10521000309392034093930350939403FC01E00F67
:10522000F11FEE0FFF1FEE0FFF1FE651FC4F6081D5
:105230007181828193810E9420F860938D03709325
:105240008E0380938F039093900380909F039090A0
:10525000A003A090A103B090A203209195033091E8
:1052600096034091970350919803C501B4010E94A1
:105270002FF42091990330919A0340919B03509110
:105280009C030E9421F86B017C01C0928903D0929B
:105290008A03E0928B03F0928C0320918D0330916E
:1052A0008E0340918F0350919003C501B4010E9479
:1052B0002FF42091910330919203409193035091E8
:1052C00094030E9421F8A70196010E9420F86093A0
:1052D0008503709386038093870390938803B5CEEC
:1052E000C12CD12C760113CF8F929F92AF92BF9297
:1052F000FF920F931F93CF93DF9300D000D0CDB7D1
:10530000DEB7F82E662351F01092DA021092D60220
:105310001092D7021092D8021092D9020E94ECC8C3
:105320004B015C018091D6029091D702A091D802E6
:10533000B091D902A5019401281B390B4A0B5B0BD4
:10534000DA01C901B7FD45C02091DA02F7FC13C0AC
:105350004F2D0F2C000C550B4C5F5F4F822F022EF0
:10536000000C990B48175907A4F184EF91E0A0E0D5
:10537000B0E02F1524F488EE93E0A0E0B0E0880DB3
:10538000991DAA1DBB1D8093D6029093D702A093AE
:10539000D802B093D902022F017010E024E2209FBE
:1053A000C001219F900D901B112480599C4F9C831C
:1053B0008B8382E390E09A838983BE016D5F7F4F88
:1053C000CE0101960E9415C38091DA028F5F80930F
:1053D000DA020F900F900F900F90DF91CF911F91F5
:1053E0000F91FF90BF90AF909F908F900895AF92D4
:1053F000BF92CF92DF92EF920F931F93CF93DF93E1
:10540000CDB7DEB760970FB6F894DEBF0FBECDBF45
:105410005C018B010E94DA16E090910C88E6C82EA0
:105420008CE0D82E84E0E89EF0011124E45EFE4F6B
:105430002081318142815381F501608171818281B6
:1054400093810E94A4F8F601248535854685578509
:105450000E9421F8F60164877587868797871D86E5
:105460001E861F86188A80819181A281B3818983DB
:105470009A83AB83BC8384819581A681B7818D8318
:105480009E83AF83B88780859185A285B385898700
:105490009A87AB87BC87AE01475F5F4FBE016B5FEA
:1054A0007F4FCE0101960E9458A9CE010D966C0146
:1054B00024E73CE0AE01475F5F4FBE016B5F7F4F6B
:1054C0000C970E94AC9A0E94E4160E94E9A760968D
:1054D0000FB6F894DEBF0FBECDBFDF91CF911F9105
:1054E0000F91EF90DF90CF90BF90AF900895CF9342
:1054F000DF93EB01682F70E088E99FE00E949C97A2
:10550000688179818A819B81673721E072078105F3
:10551000910520F467E771E080E090E00E948CD371
:1055200086B182958170DF91CF910895CF93DF93FB
:1055300000D000D0CDB7DEB78EEE92E0A0E0B0E0B4
:1055400089839A83AB83BC83BE016F5F7F4F8AE5FB
:105550000E94772A0F900F900F900F90DF91CF91BC
:105560000895CF93DF9300D000D0CDB7DEB78EEE95
:1055700092E0A0E0B0E089839A83AB83BC83BE0154
:105580006F5F7F4F8AE00E94772A0F900F900F90F5
:105590000F90DF91CF9108952F923F924F925F929B
:1055A0006F927F928F929F92AF92BF92CF92DF9233
:1055B000EF92FF920F931F93CF93DF93CDB7DEB798
:1055C0002A970FB6F894DEBF0FBECDBF2B013C016A
:1055D0002D833E834F83588747015801DA86C98659
:1055E00080915F0190916001A0916101B091620191
:1055F00089839A83AB83BC83D6011C9111960C914D
:10560000119712963C90129713962C9020E030E060
:10561000A901612F702F832D922D0E94C9F3811152
:105620000AC0ECE8FCE085919591A591B491182F02
:10563000092F3A2E2B2EA50194016091AB0C70918D
:10564000AC0C8091AD0C9091AE0C0E94C9F387FF19
:1056500016C0812F902FA32DB22D80935F019093C0
:105660006001A0936101B09362018092AB0C9092B3
:10567000AC0CA092AD0CB092AE0C0E940217E98562
:10568000FA85C080D180E280F38020E030E0A9017B
:10569000C701B6010E94C9F3811108C0C0905B0127
:1056A000D0905C01E0905D01F0905E01C0925F01DE
:1056B000D0926001E0926101F09262014092A30CED
:1056C0005092A40C6092A50C7092A60C8D819E81C4
:1056D000AF81B8858093A70C9093A80CA093A90CD8
:1056E000B093AA0C0E940217A50194016091AB0C23
:1056F0007091AC0C8091AD0C9091AE0C0E94A4F90D
:105700001816B4F4812F902FA32DB22D80935F0132
:1057100090936001A0936101B09362018092AB0C01
:105720009092AC0CA092AD0CB092AE0C0E940217FD
:105730000E94E9A789819A81AB81BC8180935F0136
:1057400090936001A0936101B09362012A960FB615
:10575000F894DEBF0FBECDBFDF91CF911F910F91A7
:10576000FF90EF90DF90CF90BF90AF909F908F9081
:105770007F906F905F904F903F902F900895CF92C1
:10578000DF92EF92FF920F931F936A01E090AB0CB0
:10579000F090AC0C0091AD0C1091AE0CFB0120818F
:1057A000318142815381FC016081718182819381C9
:1057B0000E94CC2A1F910F91FF90EF90DF90CF9025
:1057C0000895CF92DF92EF92FF920F931F936B0198
:1057D000FC01E080F18002811381E3EAFCE0248196
:1057E00035814681578160817181828193810E94D8
:1057F000CC2A1F910F91FF90EF90DF90CF900895EA
:10580000BF92CF92DF92EF92FF920F931F93CF93AD
:10581000DF93CDB7DEB728970FB6F894DEBF0FBE83
:10582000CDBF9091A10A981709F478C0B82E80E0F6
:1058300090E0A0E2B1E48D839E83AF83B887C090EF
:105840009F0CD090A00CE090A10CF090A20C20E056
:1058500030E0A901C701B6010E94C9F387FF0CC05F
:10586000A701960160E070E080E291E40E9420F8D8
:105870006D837E838F83988720E030E04AE753E48E
:105880006D817E818F8198850E94A4F9181644F459
:1058900080E090E0AAE7B3E48D839E83AF83B8876E
:1058A0002D813E814F8158856091AB0C7091AC0C7D
:1058B0008091AD0C9091AE0C0E94C9F387FF0BC094
:1058C00019821A821B821C82BE016F5F7F4FCE013C
:1058D00005960E94E12B6091A30C7091A40C80911D
:1058E000A50C9091A60C2091A70C3091A80C40918A
:1058F000A90C5091AA0C19821A821B821C82E0907A
:10590000AB0CF090AC0C0091AD0C1091AE0CFE0104
:1059100031966F010E94CC2AB092A10A80E02896AD
:105920000FB6F894DEBF0FBECDBFDF91CF911F91B0
:105930000F91FF90EF90DF90CF90BF9008950F935D
:105940001F93CF93DF93CDB7DEB72C970FB6F894A4
:10595000DEBF0FBECDBFE3EAFCE080859185A28566
:10596000B3854481558166817781008111812281CF
:10597000338109831A832B833C834D835E836F833A
:10598000788789879A87AB87BC87AE01475F5F4F6F
:10599000BE016B5F7F4FCE0101960E9458A92FEA8E
:1059A0003CE0AE01475F5F4FBE016B5F7F4FCE01B2
:1059B00001960E94FAA72C960FB6F894DEBF0FBE90
:1059C000CDBFDF91CF911F910F910895CF9380911B
:1059D0006F00C82FC27081FF05C080916F008D7F5E
:1059E00080936F0080914E0F80934D0F80934C0FEA
:1059F00080934B0F84E680934A0F0E940FAA88EE93
:105A000093E09093410980934009CC2329F0809141
:105A10006F00826080936F0081E080933E090E9456
:105A2000E9A70E94591781EB93E00E9440A98CE0FE
:105A3000E1EBF3E0A3EABCE001900D928A95E1F777
:105A4000CF910C949F2C3F924F925F926F927F92D6
:105A50008F929F92AF92BF92CF92DF92EF92FF927E
:105A60000F931F93CF93DF93CDB7DEB764970FB635
:105A7000F894DEBF0FBECDBF2A013B01C02E312EF0
:105A8000D22EF32E082F10E0F801EF52F34FE491DD
:105A9000AA24A3941E160CF4A12CBB24B39420E0DA
:105AA00030E0A901C301B2010E94A4F918160CF05C
:105AB000B12C000F111F000F111FC8018D55934FFE
:105AC0004C01FC0110821182128213820E949F2CD1
:105AD000F4014082518262827382E090910C20E056
